:1000000025006A0A000025006A0A080A1A0A480A36
:100010000F024306190A010C2A006900E9020E0AC0
:10002000EA020D0A4A0C2900E902140A170AEF0233
:100030000B0A00084D040D02060046040D040D02D3
:1000400006000605020C2E00960C2F000809EE0291
:10005000240A0D040D02060006042D040D020600FC
:100060002605020C2E00960C2F000809EE02330A1A
:100070002D040D02060026044D040D02060046055F
:10008000020C2E00960C2F000809EE02420A7E0A8E
:100090000D040D02060006044D040D02060046057F
:1000A000460C2F0008094D040D02060046042D04DD
:1000B0000D0206002605460C2F0008092D040D022E
:1000C000060026040D040D0206000605460C2F004E
:1000D00008097E0A6400FF0C2D00C704E7046900CC
:1000E00061000F0C02000400090202006D050D0200
:1000F000060066067D0A060A7E0A070A760A0300DB
:021FFE000A00D7
:00000001FF
;PIC10F222
;CRC=467F  CREATED="18-Oct-21 04:56"
