:1000000025006A0A000025006A0A080A1A0A420A3C
:1000100011024306190A010C2A006900E9020E0ABE
:10002000EA020D0A4A0C2900E902140A170AF10231
:100030000B0A00080D040D02060006042D040D0233
:10004000060026046F00090C29000F02890003072F
:10005000410A0D040D0206000605020C3000FA0CE0
:1000600031000809F0022F0A0D040D0206000604F3
:10007000020C3000FA0C31000809F0023A0AAF0213
:10008000230AA20A0D040D02060006042D040D0227
:10009000060026046F00090C29000F0289000307DF
:1000A000690A2D040D0206002605020C3000FA0C28
:1000B00031000809F002570A2D040D02060026043B
:1000C000020C3000FA0C31000809F002620AAF029B
:1000D0004B0AA70A6400FF0C2D00C704E70469005F
:1000E00061000F0C02000400090202006E00090CFE
:1000F00029000E02890003079D0A0D040D02060067
:1001000006052D040D0206002605020C2F00FA0C30
:1001100031000809EF02870A0D040D0206000604EB
:100120002D040D0206002604020C2F00FA0C3100EB
:100130000809EF02960AAE02770A4D050D02060085
:100140004607060A6D050D0206006607070A9D0AA6
:020150000300AA
:021FFE000A00D7
:00000001FF
;PIC10F222
;CRC=B88B  CREATED="18-Oct-21 07:06"
