:1000000025006A0A000025006A0A080A1A0A420A3C
:1000100010024306190A010C2A006900E9020E0ABF
:10002000EA020D0A4A0C2900E902140A170AF00232
:100030000B0A00080D040D02060006042D040D0233
:10004000060026046E00090C29000E028900030731
:10005000410A0D040D0206000605020C2F00FA0CE1
:1000600030000809EF022F0A0D040D0206000604F5
:10007000020C2F00FA0C30000809EF023A0AAE0217
:10008000230A00080D040D02060006042D040D02CB
:10009000060026046E00090C29000E0289000307E1
:1000A000690A2D040D0206002605020C2F00FA0C29
:1000B00030000809EF02570A2D040D02060026043D
:1000C000020C2F00FA0C30000809EF02620AAE029F
:1000D0004B0A810A6400FF0C2D00C704E704690085
:1000E00061000F0C02000400090202001A094D050C
:1000F0000D02060046071A096D050D020600660787
:06010000070A770A030064
:021FFE000A00D7
:00000001FF
;PIC10F222
;CRC=384B  CREATED="18-Oct-21 06:57"
