:1000000025005B0A000025005B0A080A1A0A390A63
:100010000E024306190A010C2A006900E9020E0AC1
:10002000EA020D0A4A0C2900E902140A170AEE0234
:100030000B0A00084D040D02060046040D040D02D3
:1000400006000605460C2E0008090D040D020600E8
:1000500006042D040D0206002605460C2E00080994
:100060002D040D02060026044D040D02060046056F
:100070006F0A0D040D02060006044D040D02060071
:100080004605460C2E0008094D040D0206004604E4
:100090002D040D0206002605460C2E0008092D042D
:1000A0000D02060026040D040D0206000605460C8E
:1000B0002E0008096F0A6400FF0C2D00C704E70436
:1000C000690061000F0C02000400090202006D05C6
:1000D0000D02060066066E0A060A6F0A070A670A1C
:0200E00003001B
:021FFE000A00D7
:00000001FF
;PIC10F222
;CRC=5B76  CREATED="18-Oct-21 07:17"
